{
  "address": "0x5FbDB2315678afecb367f032d93F642f64180aa3",
  "abi": [
    {
      "inputs": [
        {
          "internalType": "uint256",
          "name": "_feePercent",
          "type": "uint256"
        }
      ],
      "stateMutability": "nonpayable",
      "type": "constructor"
    },
    {
      "anonymous": false,
      "inputs": [
        {
          "indexed": true,
          "internalType": "address",
          "name": "buyer",
          "type": "address"
        },
        {
          "indexed": true,
          "internalType": "contract IERC721",
          "name": "nftAddress",
          "type": "address"
        },
        {
          "indexed": true,
          "internalType": "uint256",
          "name": "tokenId",
          "type": "uint256"
        },
        {
          "indexed": false,
          "internalType": "uint256",
          "name": "price",
          "type": "uint256"
        }
      ],
      "name": "bookBought",
      "type": "event"
    },
    {
      "inputs": [
        {
          "internalType": "uint256",
          "name": "bookId",
          "type": "uint256"
        }
      ],
      "name": "buyItem",
      "outputs": [],
      "stateMutability": "payable",
      "type": "function"
    },
    {
      "inputs": [
        {
          "internalType": "uint256",
          "name": "bookId",
          "type": "uint256"
        }
      ],
      "name": "calcTotalPrice",
      "outputs": [
        {
          "internalType": "uint256",
          "name": "",
          "type": "uint256"
        }
      ],
      "stateMutability": "view",
      "type": "function"
    },
    {
      "inputs": [],
      "name": "i_percent",
      "outputs": [
        {
          "internalType": "uint256",
          "name": "",
          "type": "uint256"
        }
      ],
      "stateMutability": "view",
      "type": "function"
    },
    {
      "inputs": [
        {
          "internalType": "contract IERC721",
          "name": "nftAddress",
          "type": "address"
        },
        {
          "internalType": "uint256",
          "name": "_bookId",
          "type": "uint256"
        },
        {
          "internalType": "uint256",
          "name": "_price",
          "type": "uint256"
        }
      ],
      "name": "listBook",
      "outputs": [
        {
          "internalType": "uint256",
          "name": "",
          "type": "uint256"
        }
      ],
      "stateMutability": "nonpayable",
      "type": "function"
    }
  ],
  "transactionHash": "0x61469eac4ccd7922be7ee11f6235784c99c79b7ba158c902599bd190823d1709",
  "args": [
    30
  ],
  "numDeployments": 1,
  "solcInputHash": "5fe7686abfc778f707a7d099c1ba2069",
  "bytecode": "0x60c060405234801561001057600080fd5b50604051610c55380380610c558339818101604052810190610032919061008c565b3373ffffffffffffffffffffffffffffffffffffffff1660808173ffffffffffffffffffffffffffffffffffffffff1660601b815250508060a08181525050506100df565b600081519050610086816100c8565b92915050565b6000602082840312156100a2576100a16100c3565b5b60006100b084828501610077565b91505092915050565b6000819050919050565b600080fd5b6100d1816100b9565b81146100dc57600080fd5b50565b60805160601c60a051610b4761010e6000396000818161010b0152610380015260006105490152610b476000f3fe60806040526004361061003f5760003560e01c80635bae9f73146100445780637e8ddbbb14610081578063e6ba9935146100be578063e7fb74c7146100e9575b600080fd5b34801561005057600080fd5b5061006b60048036038101906100669190610728565b610105565b6040516100789190610830565b60405180910390f35b34801561008d57600080fd5b506100a860048036038101906100a391906106d5565b610168565b6040516100b59190610830565b60405180910390f35b3480156100ca57600080fd5b506100d361037e565b6040516100e09190610830565b60405180910390f35b61010360048036038101906100fe9190610728565b6103a2565b005b600060647f000000000000000000000000000000000000000000000000000000000000000061013491906108b2565b6064610140919061085c565b600160008481526020019081526020016000206002015461016191906108e3565b9050919050565b60008082116101ac576040517f08c379a00000000000000000000000000000000000000000000000000000000081526004016101a390610810565b60405180910390fd5b6000808154809291906101be906109bf565b91905055508373ffffffffffffffffffffffffffffffffffffffff166323b872dd3330866040518463ffffffff1660e01b8152600401610200939291906107b9565b600060405180830381600087803b15801561021a57600080fd5b505af115801561022e573d6000803e3d6000fd5b505050506040518060c0016040528060005481526020018573ffffffffffffffffffffffffffffffffffffffff1681526020018381526020018481526020013373ffffffffffffffffffffffffffffffffffffffff16815260200160001515815250600160008581526020019081526020016000206000820151816000015560208201518160010160006101000a81548173ffffffffffffffffffffffffffffffffffffffff021916908373ffffffffffffffffffffffffffffffffffffffff160217905550604082015181600201556060820151816003015560808201518160040160006101000a81548173ffffffffffffffffffffffffffffffffffffffff021916908373ffffffffffffffffffffffffffffffffffffffff16021790555060a08201518160040160146101000a81548160ff02191690831515021790555090505060005490509392505050565b7f000000000000000000000000000000000000000000000000000000000000000081565b60006103ad82610105565b90506000600160008481526020019081526020016000206040518060c0016040529081600082015481526020016001820160009054906101000a900473ffffffffffffffffffffffffffffffffffffffff1673ffffffffffffffffffffffffffffffffffffffff1673ffffffffffffffffffffffffffffffffffffffff16815260200160028201548152602001600382015481526020016004820160009054906101000a900473ffffffffffffffffffffffffffffffffffffffff1673ffffffffffffffffffffffffffffffffffffffff1673ffffffffffffffffffffffffffffffffffffffff1681526020016004820160149054906101000a900460ff16151515158152505090508134106104f8576040517f08c379a00000000000000000000000000000000000000000000000000000000081526004016104ef906107f0565b60405180910390fd5b806080015173ffffffffffffffffffffffffffffffffffffffff166108fc82604001519081150290604051600060405180830381858888f19350505050158015610546573d6000803e3d6000fd5b507f000000000000000000000000000000000000000000000000000000000000000073ffffffffffffffffffffffffffffffffffffffff166108fc826040015184610591919061093d565b9081150290604051600060405180830381858888f193505050501580156105bc573d6000803e3d6000fd5b50806020015173ffffffffffffffffffffffffffffffffffffffff166342842e0e303384606001516040518463ffffffff1660e01b8152600401610602939291906107b9565b600060405180830381600087803b15801561061c57600080fd5b505af1158015610630573d6000803e3d6000fd5b505050508060600151816020015173ffffffffffffffffffffffffffffffffffffffff163373ffffffffffffffffffffffffffffffffffffffff167f7c8b36c6ac32bb71a131a446540d5148538180e5553821c81334b06d5b9d5969846040015160405161069e9190610830565b60405180910390a4505050565b6000813590506106ba81610ae3565b92915050565b6000813590506106cf81610afa565b92915050565b6000806000606084860312156106ee576106ed610a66565b5b60006106fc868287016106ab565b935050602061070d868287016106c0565b925050604061071e868287016106c0565b9150509250925092565b60006020828403121561073e5761073d610a66565b5b600061074c848285016106c0565b91505092915050565b61075e81610971565b82525050565b600061077160118361084b565b915061077c82610a6b565b602082019050919050565b600061079460218361084b565b915061079f82610a94565b604082019050919050565b6107b3816109b5565b82525050565b60006060820190506107ce6000830186610755565b6107db6020830185610755565b6107e860408301846107aa565b949350505050565b6000602082019050818103600083015261080981610764565b9050919050565b6000602082019050818103600083015261082981610787565b9050919050565b600060208201905061084560008301846107aa565b92915050565b600082825260208201905092915050565b6000610867826109b5565b9150610872836109b5565b9250827fffffffffffffffffffffffffffffffffffffffffffffffffffffffffffffffff038211156108a7576108a6610a08565b5b828201905092915050565b60006108bd826109b5565b91506108c8836109b5565b9250826108d8576108d7610a37565b5b828204905092915050565b60006108ee826109b5565b91506108f9836109b5565b9250817fffffffffffffffffffffffffffffffffffffffffffffffffffffffffffffffff048311821515161561093257610931610a08565b5b828202905092915050565b6000610948826109b5565b9150610953836109b5565b92508282101561096657610965610a08565b5b828203905092915050565b600061097c82610995565b9050919050565b600061098e82610971565b9050919050565b600073ffffffffffffffffffffffffffffffffffffffff82169050919050565b6000819050919050565b60006109ca826109b5565b91507fffffffffffffffffffffffffffffffffffffffffffffffffffffffffffffffff8214156109fd576109fc610a08565b5b600182019050919050565b7f4e487b7100000000000000000000000000000000000000000000000000000000600052601160045260246000fd5b7f4e487b7100000000000000000000000000000000000000000000000000000000600052601260045260246000fd5b600080fd5b7f6e6f7420656e6f756768206d6f6e657920000000000000000000000000000000600082015250565b7f70726963652073686f756c642062652067726561746572207468616e207a657260008201527f6f00000000000000000000000000000000000000000000000000000000000000602082015250565b610aec81610983565b8114610af757600080fd5b50565b610b03816109b5565b8114610b0e57600080fd5b5056fea264697066735822122069eed53bf942d6ad624e29498f9ea5dad1cb42957020069496d05ff0a0f2120764736f6c63430008070033",
  "devdoc": {
    "kind": "dev",
    "methods": {},
    "version": 1
  },
  "userdoc": {
    "kind": "user",
    "methods": {},
    "version": 1
  },
  "storageLayout": {
    "storage": [
      {
        "astId": 2667,
        "contract": "contracts/book_Nft.sol:bookNft",
        "label": "itemCount",
        "offset": 0,
        "slot": "0",
        "type": "t_uint256"
      },
      {
        "astId": 2715,
        "contract": "contracts/book_Nft.sol:bookNft",
        "label": "bookMapping",
        "offset": 0,
        "slot": "1",
        "type": "t_mapping(t_uint256,t_struct(book)2699_storage)"
      }
    ],
    "types": {
      "t_address_payable": {
        "encoding": "inplace",
        "label": "address payable",
        "numberOfBytes": "20"
      },
      "t_bool": {
        "encoding": "inplace",
        "label": "bool",
        "numberOfBytes": "1"
      },
      "t_contract(IERC721)1060": {
        "encoding": "inplace",
        "label": "contract IERC721",
        "numberOfBytes": "20"
      },
      "t_mapping(t_uint256,t_struct(book)2699_storage)": {
        "encoding": "mapping",
        "key": "t_uint256",
        "label": "mapping(uint256 => struct bookNft.book)",
        "numberOfBytes": "32",
        "value": "t_struct(book)2699_storage"
      },
      "t_struct(book)2699_storage": {
        "encoding": "inplace",
        "label": "struct bookNft.book",
        "members": [
          {
            "astId": 2687,
            "contract": "contracts/book_Nft.sol:bookNft",
            "label": "bookId",
            "offset": 0,
            "slot": "0",
            "type": "t_uint256"
          },
          {
            "astId": 2690,
            "contract": "contracts/book_Nft.sol:bookNft",
            "label": "nft",
            "offset": 0,
            "slot": "1",
            "type": "t_contract(IERC721)1060"
          },
          {
            "astId": 2692,
            "contract": "contracts/book_Nft.sol:bookNft",
            "label": "price",
            "offset": 0,
            "slot": "2",
            "type": "t_uint256"
          },
          {
            "astId": 2694,
            "contract": "contracts/book_Nft.sol:bookNft",
            "label": "tokenId",
            "offset": 0,
            "slot": "3",
            "type": "t_uint256"
          },
          {
            "astId": 2696,
            "contract": "contracts/book_Nft.sol:bookNft",
            "label": "seller",
            "offset": 0,
            "slot": "4",
            "type": "t_address_payable"
          },
          {
            "astId": 2698,
            "contract": "contracts/book_Nft.sol:bookNft",
            "label": "sold",
            "offset": 20,
            "slot": "4",
            "type": "t_bool"
          }
        ],
        "numberOfBytes": "160"
      },
      "t_uint256": {
        "encoding": "inplace",
        "label": "uint256",
        "numberOfBytes": "32"
      }
    }
  }
}