{
  "address": "0x5FbDB2315678afecb367f032d93F642f64180aa3",
  "abi": [
    {
      "inputs": [
        {
          "internalType": "uint256",
          "name": "_feePercent",
          "type": "uint256"
        }
      ],
      "stateMutability": "nonpayable",
      "type": "constructor"
    },
    {
      "anonymous": false,
      "inputs": [
        {
          "indexed": true,
          "internalType": "address",
          "name": "buyer",
          "type": "address"
        },
        {
          "indexed": true,
          "internalType": "contract IERC721",
          "name": "nftAddress",
          "type": "address"
        },
        {
          "indexed": true,
          "internalType": "uint256",
          "name": "tokenId",
          "type": "uint256"
        },
        {
          "indexed": false,
          "internalType": "uint256",
          "name": "price",
          "type": "uint256"
        }
      ],
      "name": "bookBought",
      "type": "event"
    },
    {
      "inputs": [
        {
          "internalType": "uint256",
          "name": "bookId",
          "type": "uint256"
        }
      ],
      "name": "buyItem",
      "outputs": [],
      "stateMutability": "payable",
      "type": "function"
    },
    {
      "inputs": [
        {
          "internalType": "uint256",
          "name": "bookId",
          "type": "uint256"
        }
      ],
      "name": "calcTotalPrice",
      "outputs": [
        {
          "internalType": "uint256",
          "name": "",
          "type": "uint256"
        }
      ],
      "stateMutability": "view",
      "type": "function"
    },
    {
      "inputs": [],
      "name": "getBooks",
      "outputs": [
        {
          "components": [
            {
              "internalType": "uint256",
              "name": "bookId",
              "type": "uint256"
            },
            {
              "internalType": "contract IERC721",
              "name": "nft",
              "type": "address"
            },
            {
              "internalType": "uint256",
              "name": "price",
              "type": "uint256"
            },
            {
              "internalType": "uint256",
              "name": "tokenId",
              "type": "uint256"
            },
            {
              "internalType": "address payable",
              "name": "seller",
              "type": "address"
            },
            {
              "internalType": "bool",
              "name": "sold",
              "type": "bool"
            }
          ],
          "internalType": "struct bookNft.book[]",
          "name": "",
          "type": "tuple[]"
        }
      ],
      "stateMutability": "view",
      "type": "function"
    },
    {
      "inputs": [],
      "name": "i_percent",
      "outputs": [
        {
          "internalType": "uint256",
          "name": "",
          "type": "uint256"
        }
      ],
      "stateMutability": "view",
      "type": "function"
    },
    {
      "inputs": [
        {
          "internalType": "contract IERC721",
          "name": "nftAddress",
          "type": "address"
        },
        {
          "internalType": "uint256",
          "name": "_bookId",
          "type": "uint256"
        },
        {
          "internalType": "uint256",
          "name": "_price",
          "type": "uint256"
        }
      ],
      "name": "listBook",
      "outputs": [
        {
          "internalType": "uint256",
          "name": "",
          "type": "uint256"
        }
      ],
      "stateMutability": "nonpayable",
      "type": "function"
    }
  ],
  "transactionHash": "0x809d4b3c1c675b78e5b816d3c9cfc620b1b73f74073fc7aad28c8cb932ad2fb1",
  "args": [
    30
  ],
  "numDeployments": 1,
  "solcInputHash": "3189391f6a65815812bbcc42c39e7a71",
  "bytecode": "0x60c060405234801561001057600080fd5b506040516111083803806111088339818101604052810190610032919061008c565b3373ffffffffffffffffffffffffffffffffffffffff1660808173ffffffffffffffffffffffffffffffffffffffff1660601b815250508060a08181525050506100df565b600081519050610086816100c8565b92915050565b6000602082840312156100a2576100a16100c3565b5b60006100b084828501610077565b91505092915050565b6000819050919050565b600080fd5b6100d1816100b9565b81146100dc57600080fd5b50565b60805160601c60a051610ffa61010e600039600081816101410152610657015260006108200152610ffa6000f3fe60806040526004361061004a5760003560e01c80635bae9f731461004f5780637e8ddbbb1461008c5780639f349789146100c9578063e6ba9935146100f4578063e7fb74c71461011f575b600080fd5b34801561005b57600080fd5b50610076600480360381019061007191906109ff565b61013b565b6040516100839190610c56565b60405180910390f35b34801561009857600080fd5b506100b360048036038101906100ae91906109ac565b61019e565b6040516100c09190610c56565b60405180910390f35b3480156100d557600080fd5b506100de610511565b6040516100eb9190610bf4565b60405180910390f35b34801561010057600080fd5b50610109610655565b6040516101169190610c56565b60405180910390f35b610139600480360381019061013491906109ff565b610679565b005b600060647f000000000000000000000000000000000000000000000000000000000000000061016a9190610d11565b60646101769190610cbb565b60016000848152602001908152602001600020600201546101979190610d42565b9050919050565b60008082116101e2576040517f08c379a00000000000000000000000000000000000000000000000000000000081526004016101d990610c36565b60405180910390fd5b6000808154809291906101f490610e72565b91905055508373ffffffffffffffffffffffffffffffffffffffff166323b872dd3330866040518463ffffffff1660e01b815260040161023693929190610bbd565b600060405180830381600087803b15801561025057600080fd5b505af1158015610264573d6000803e3d6000fd5b505050506040518060c0016040528060005481526020018573ffffffffffffffffffffffffffffffffffffffff1681526020018381526020018481526020013373ffffffffffffffffffffffffffffffffffffffff16815260200160001515815250600160008581526020019081526020016000206000820151816000015560208201518160010160006101000a81548173ffffffffffffffffffffffffffffffffffffffff021916908373ffffffffffffffffffffffffffffffffffffffff160217905550604082015181600201556060820151816003015560808201518160040160006101000a81548173ffffffffffffffffffffffffffffffffffffffff021916908373ffffffffffffffffffffffffffffffffffffffff16021790555060a08201518160040160146101000a81548160ff02191690831515021790555090505060006040518060c0016040528060005481526020018673ffffffffffffffffffffffffffffffffffffffff1681526020018481526020018581526020013373ffffffffffffffffffffffffffffffffffffffff16815260200160001515815250905060028190806001815401808255809150506001900390600052602060002090600502016000909190919091506000820151816000015560208201518160010160006101000a81548173ffffffffffffffffffffffffffffffffffffffff021916908373ffffffffffffffffffffffffffffffffffffffff160217905550604082015181600201556060820151816003015560808201518160040160006101000a81548173ffffffffffffffffffffffffffffffffffffffff021916908373ffffffffffffffffffffffffffffffffffffffff16021790555060a08201518160040160146101000a81548160ff02191690831515021790555050506000549150509392505050565b60606002805480602002602001604051908101604052809291908181526020016000905b8282101561064c57838290600052602060002090600502016040518060c0016040529081600082015481526020016001820160009054906101000a900473ffffffffffffffffffffffffffffffffffffffff1673ffffffffffffffffffffffffffffffffffffffff1673ffffffffffffffffffffffffffffffffffffffff16815260200160028201548152602001600382015481526020016004820160009054906101000a900473ffffffffffffffffffffffffffffffffffffffff1673ffffffffffffffffffffffffffffffffffffffff1673ffffffffffffffffffffffffffffffffffffffff1681526020016004820160149054906101000a900460ff16151515158152505081526020019060010190610535565b50505050905090565b7f000000000000000000000000000000000000000000000000000000000000000081565b60006106848261013b565b90506000600160008481526020019081526020016000206040518060c0016040529081600082015481526020016001820160009054906101000a900473ffffffffffffffffffffffffffffffffffffffff1673ffffffffffffffffffffffffffffffffffffffff1673ffffffffffffffffffffffffffffffffffffffff16815260200160028201548152602001600382015481526020016004820160009054906101000a900473ffffffffffffffffffffffffffffffffffffffff1673ffffffffffffffffffffffffffffffffffffffff1673ffffffffffffffffffffffffffffffffffffffff1681526020016004820160149054906101000a900460ff16151515158152505090508134106107cf576040517f08c379a00000000000000000000000000000000000000000000000000000000081526004016107c690610c16565b60405180910390fd5b806080015173ffffffffffffffffffffffffffffffffffffffff166108fc82604001519081150290604051600060405180830381858888f1935050505015801561081d573d6000803e3d6000fd5b507f000000000000000000000000000000000000000000000000000000000000000073ffffffffffffffffffffffffffffffffffffffff166108fc8260400151846108689190610d9c565b9081150290604051600060405180830381858888f19350505050158015610893573d6000803e3d6000fd5b50806020015173ffffffffffffffffffffffffffffffffffffffff166342842e0e303384606001516040518463ffffffff1660e01b81526004016108d993929190610bbd565b600060405180830381600087803b1580156108f357600080fd5b505af1158015610907573d6000803e3d6000fd5b505050508060600151816020015173ffffffffffffffffffffffffffffffffffffffff163373ffffffffffffffffffffffffffffffffffffffff167f7c8b36c6ac32bb71a131a446540d5148538180e5553821c81334b06d5b9d596984604001516040516109759190610c56565b60405180910390a4505050565b60008135905061099181610f96565b92915050565b6000813590506109a681610fad565b92915050565b6000806000606084860312156109c5576109c4610f19565b5b60006109d386828701610982565b93505060206109e486828701610997565b92505060406109f586828701610997565b9150509250925092565b600060208284031215610a1557610a14610f19565b5b6000610a2384828501610997565b91505092915050565b6000610a388383610b24565b60c08301905092915050565b610a4d81610de2565b82525050565b610a5c81610dd0565b82525050565b6000610a6d82610c81565b610a778185610c99565b9350610a8283610c71565b8060005b83811015610ab3578151610a9a8882610a2c565b9750610aa583610c8c565b925050600181019050610a86565b5085935050505092915050565b610ac981610df4565b82525050565b610ad881610e3c565b82525050565b6000610aeb601183610caa565b9150610af682610f1e565b602082019050919050565b6000610b0e602183610caa565b9150610b1982610f47565b604082019050919050565b60c082016000820151610b3a6000850182610b9f565b506020820151610b4d6020850182610acf565b506040820151610b606040850182610b9f565b506060820151610b736060850182610b9f565b506080820151610b866080850182610a44565b5060a0820151610b9960a0850182610ac0565b50505050565b610ba881610e32565b82525050565b610bb781610e32565b82525050565b6000606082019050610bd26000830186610a53565b610bdf6020830185610a53565b610bec6040830184610bae565b949350505050565b60006020820190508181036000830152610c0e8184610a62565b905092915050565b60006020820190508181036000830152610c2f81610ade565b9050919050565b60006020820190508181036000830152610c4f81610b01565b9050919050565b6000602082019050610c6b6000830184610bae565b92915050565b6000819050602082019050919050565b600081519050919050565b6000602082019050919050565b600082825260208201905092915050565b600082825260208201905092915050565b6000610cc682610e32565b9150610cd183610e32565b9250827fffffffffffffffffffffffffffffffffffffffffffffffffffffffffffffffff03821115610d0657610d05610ebb565b5b828201905092915050565b6000610d1c82610e32565b9150610d2783610e32565b925082610d3757610d36610eea565b5b828204905092915050565b6000610d4d82610e32565b9150610d5883610e32565b9250817fffffffffffffffffffffffffffffffffffffffffffffffffffffffffffffffff0483118215151615610d9157610d90610ebb565b5b828202905092915050565b6000610da782610e32565b9150610db283610e32565b925082821015610dc557610dc4610ebb565b5b828203905092915050565b6000610ddb82610e12565b9050919050565b6000610ded82610e12565b9050919050565b60008115159050919050565b6000610e0b82610dd0565b9050919050565b600073ffffffffffffffffffffffffffffffffffffffff82169050919050565b6000819050919050565b6000610e4782610e4e565b9050919050565b6000610e5982610e60565b9050919050565b6000610e6b82610e12565b9050919050565b6000610e7d82610e32565b91507fffffffffffffffffffffffffffffffffffffffffffffffffffffffffffffffff821415610eb057610eaf610ebb565b5b600182019050919050565b7f4e487b7100000000000000000000000000000000000000000000000000000000600052601160045260246000fd5b7f4e487b7100000000000000000000000000000000000000000000000000000000600052601260045260246000fd5b600080fd5b7f6e6f7420656e6f756768206d6f6e657920000000000000000000000000000000600082015250565b7f70726963652073686f756c642062652067726561746572207468616e207a657260008201527f6f00000000000000000000000000000000000000000000000000000000000000602082015250565b610f9f81610e00565b8114610faa57600080fd5b50565b610fb681610e32565b8114610fc157600080fd5b5056fea26469706673582212206b53b5be1c907121d19c9e12b8caa56443deedbf17fc88f3eafffc800dbeaa8364736f6c63430008070033",
  "devdoc": {
    "kind": "dev",
    "methods": {},
    "version": 1
  },
  "userdoc": {
    "kind": "user",
    "methods": {},
    "version": 1
  },
  "storageLayout": {
    "storage": [
      {
        "astId": 136,
        "contract": "contracts/book_Nft.sol:bookNft",
        "label": "itemCount",
        "offset": 0,
        "slot": "0",
        "type": "t_uint256"
      },
      {
        "astId": 184,
        "contract": "contracts/book_Nft.sol:bookNft",
        "label": "bookMapping",
        "offset": 0,
        "slot": "1",
        "type": "t_mapping(t_uint256,t_struct(book)168_storage)"
      },
      {
        "astId": 188,
        "contract": "contracts/book_Nft.sol:bookNft",
        "label": "bookArray",
        "offset": 0,
        "slot": "2",
        "type": "t_array(t_struct(book)168_storage)dyn_storage"
      }
    ],
    "types": {
      "t_address_payable": {
        "encoding": "inplace",
        "label": "address payable",
        "numberOfBytes": "20"
      },
      "t_array(t_struct(book)168_storage)dyn_storage": {
        "base": "t_struct(book)168_storage",
        "encoding": "dynamic_array",
        "label": "struct bookNft.book[]",
        "numberOfBytes": "32"
      },
      "t_bool": {
        "encoding": "inplace",
        "label": "bool",
        "numberOfBytes": "1"
      },
      "t_contract(IERC721)115": {
        "encoding": "inplace",
        "label": "contract IERC721",
        "numberOfBytes": "20"
      },
      "t_mapping(t_uint256,t_struct(book)168_storage)": {
        "encoding": "mapping",
        "key": "t_uint256",
        "label": "mapping(uint256 => struct bookNft.book)",
        "numberOfBytes": "32",
        "value": "t_struct(book)168_storage"
      },
      "t_struct(book)168_storage": {
        "encoding": "inplace",
        "label": "struct bookNft.book",
        "members": [
          {
            "astId": 156,
            "contract": "contracts/book_Nft.sol:bookNft",
            "label": "bookId",
            "offset": 0,
            "slot": "0",
            "type": "t_uint256"
          },
          {
            "astId": 159,
            "contract": "contracts/book_Nft.sol:bookNft",
            "label": "nft",
            "offset": 0,
            "slot": "1",
            "type": "t_contract(IERC721)115"
          },
          {
            "astId": 161,
            "contract": "contracts/book_Nft.sol:bookNft",
            "label": "price",
            "offset": 0,
            "slot": "2",
            "type": "t_uint256"
          },
          {
            "astId": 163,
            "contract": "contracts/book_Nft.sol:bookNft",
            "label": "tokenId",
            "offset": 0,
            "slot": "3",
            "type": "t_uint256"
          },
          {
            "astId": 165,
            "contract": "contracts/book_Nft.sol:bookNft",
            "label": "seller",
            "offset": 0,
            "slot": "4",
            "type": "t_address_payable"
          },
          {
            "astId": 167,
            "contract": "contracts/book_Nft.sol:bookNft",
            "label": "sold",
            "offset": 20,
            "slot": "4",
            "type": "t_bool"
          }
        ],
        "numberOfBytes": "160"
      },
      "t_uint256": {
        "encoding": "inplace",
        "label": "uint256",
        "numberOfBytes": "32"
      }
    }
  }
}